{
	"espar.sol": {
		"espar": {
			"abi": [
				{
					"inputs": [
						{
							"internalType": "uint256",
							"name": "numero",
							"type": "uint256"
						}
					],
					"name": "ver",
					"outputs": [
						{
							"internalType": "bool",
							"name": "",
							"type": "bool"
						}
					],
					"stateMutability": "pure",
					"type": "function"
				}
			],
			"devdoc": {
				"kind": "dev",
				"methods": {},
				"version": 1
			},
			"evm": {
				"assembly": "    /* \"espar.sol\":69:466  library espar{... */\n  dataSize(sub_0)\n  dataOffset(sub_0)\n  0x0b\n  dup3\n  dup3\n  dup3\n  codecopy\n  dup1\n  mload\n  0x00\n  byte\n  0x73\n  eq\n  tag_1\n  jumpi\n  mstore(0x00, 0x4e487b7100000000000000000000000000000000000000000000000000000000)\n  mstore(0x04, 0x00)\n  revert(0x00, 0x24)\ntag_1:\n  mstore(0x00, address)\n  0x73\n  dup2\n  mstore8\n  dup3\n  dup2\n  return\nstop\n\nsub_0: assembly {\n        /* \"espar.sol\":69:466  library espar{... */\n      eq(address, deployTimeAddress())\n      mstore(0x40, 0x80)\n      jumpi(tag_1, lt(calldatasize, 0x04))\n      shr(0xe0, calldataload(0x00))\n      dup1\n      0x04844c5f\n      eq\n      tag_2\n      jumpi\n    tag_1:\n      0x00\n      dup1\n      revert\n        /* \"espar.sol\":91:280  function ver(uint256  numero) public pure returns(bool){... */\n    tag_2:\n      tag_3\n      0x04\n      dup1\n      calldatasize\n      sub\n      dup2\n      add\n      swap1\n      tag_4\n      swap2\n      swap1\n      tag_5\n      jump\t// in\n    tag_4:\n      tag_6\n      jump\t// in\n    tag_3:\n      mload(0x40)\n      tag_7\n      swap2\n      swap1\n      tag_8\n      jump\t// in\n    tag_7:\n      mload(0x40)\n      dup1\n      swap2\n      sub\n      swap1\n      return\n    tag_6:\n        /* \"espar.sol\":141:145  bool */\n      0x00\n        /* \"espar.sol\":157:168  uint modulo */\n      dup1\n        /* \"espar.sol\":180:181  2 */\n      0x02\n        /* \"espar.sol\":171:177  numero */\n      dup4\n        /* \"espar.sol\":171:181  numero % 2 */\n      tag_10\n      swap2\n      swap1\n      tag_11\n      jump\t// in\n    tag_10:\n        /* \"espar.sol\":157:181  uint modulo = numero % 2 */\n      swap1\n      pop\n        /* \"espar.sol\":206:207  0 */\n      0x00\n        /* \"espar.sol\":196:202  modulo */\n      dup2\n        /* \"espar.sol\":196:207  modulo == 0 */\n      sub\n        /* \"espar.sol\":192:273  if (modulo == 0)... */\n      tag_12\n      jumpi\n        /* \"espar.sol\":227:231  true */\n      0x01\n        /* \"espar.sol\":220:231  return true */\n      swap2\n      pop\n      pop\n      jump(tag_9)\n        /* \"espar.sol\":192:273  if (modulo == 0)... */\n    tag_12:\n        /* \"espar.sol\":266:271  false */\n      0x00\n        /* \"espar.sol\":259:271  return false */\n      swap2\n      pop\n      pop\n        /* \"espar.sol\":91:280  function ver(uint256  numero) public pure returns(bool){... */\n    tag_9:\n      swap2\n      swap1\n      pop\n      jump\t// out\n        /* \"#utility.yul\":88:205   */\n    tag_15:\n        /* \"#utility.yul\":197:198   */\n      0x00\n        /* \"#utility.yul\":194:195   */\n      dup1\n        /* \"#utility.yul\":187:199   */\n      revert\n        /* \"#utility.yul\":334:411   */\n    tag_17:\n        /* \"#utility.yul\":371:378   */\n      0x00\n        /* \"#utility.yul\":400:405   */\n      dup2\n        /* \"#utility.yul\":389:405   */\n      swap1\n      pop\n        /* \"#utility.yul\":334:411   */\n      swap2\n      swap1\n      pop\n      jump\t// out\n        /* \"#utility.yul\":417:539   */\n    tag_18:\n        /* \"#utility.yul\":490:514   */\n      tag_29\n        /* \"#utility.yul\":508:513   */\n      dup2\n        /* \"#utility.yul\":490:514   */\n      tag_17\n      jump\t// in\n    tag_29:\n        /* \"#utility.yul\":483:488   */\n      dup2\n        /* \"#utility.yul\":480:515   */\n      eq\n        /* \"#utility.yul\":470:533   */\n      tag_30\n      jumpi\n        /* \"#utility.yul\":529:530   */\n      0x00\n        /* \"#utility.yul\":526:527   */\n      dup1\n        /* \"#utility.yul\":519:531   */\n      revert\n        /* \"#utility.yul\":470:533   */\n    tag_30:\n        /* \"#utility.yul\":417:539   */\n      pop\n      jump\t// out\n        /* \"#utility.yul\":545:684   */\n    tag_19:\n        /* \"#utility.yul\":591:596   */\n      0x00\n        /* \"#utility.yul\":629:635   */\n      dup2\n        /* \"#utility.yul\":616:636   */\n      calldataload\n        /* \"#utility.yul\":607:636   */\n      swap1\n      pop\n        /* \"#utility.yul\":645:678   */\n      tag_32\n        /* \"#utility.yul\":672:677   */\n      dup2\n        /* \"#utility.yul\":645:678   */\n      tag_18\n      jump\t// in\n    tag_32:\n        /* \"#utility.yul\":545:684   */\n      swap3\n      swap2\n      pop\n      pop\n      jump\t// out\n        /* \"#utility.yul\":690:1019   */\n    tag_5:\n        /* \"#utility.yul\":749:755   */\n      0x00\n        /* \"#utility.yul\":798:800   */\n      0x20\n        /* \"#utility.yul\":786:795   */\n      dup3\n        /* \"#utility.yul\":777:784   */\n      dup5\n        /* \"#utility.yul\":773:796   */\n      sub\n        /* \"#utility.yul\":769:801   */\n      slt\n        /* \"#utility.yul\":766:885   */\n      iszero\n      tag_34\n      jumpi\n        /* \"#utility.yul\":804:883   */\n      tag_35\n      tag_15\n      jump\t// in\n    tag_35:\n        /* \"#utility.yul\":766:885   */\n    tag_34:\n        /* \"#utility.yul\":924:925   */\n      0x00\n        /* \"#utility.yul\":949:1002   */\n      tag_36\n        /* \"#utility.yul\":994:1001   */\n      dup5\n        /* \"#utility.yul\":985:991   */\n      dup3\n        /* \"#utility.yul\":974:983   */\n      dup6\n        /* \"#utility.yul\":970:992   */\n      add\n        /* \"#utility.yul\":949:1002   */\n      tag_19\n      jump\t// in\n    tag_36:\n        /* \"#utility.yul\":939:1002   */\n      swap2\n      pop\n        /* \"#utility.yul\":895:1012   */\n      pop\n        /* \"#utility.yul\":690:1019   */\n      swap3\n      swap2\n      pop\n      pop\n      jump\t// out\n        /* \"#utility.yul\":1025:1115   */\n    tag_20:\n        /* \"#utility.yul\":1059:1066   */\n      0x00\n        /* \"#utility.yul\":1102:1107   */\n      dup2\n        /* \"#utility.yul\":1095:1108   */\n      iszero\n        /* \"#utility.yul\":1088:1109   */\n      iszero\n        /* \"#utility.yul\":1077:1109   */\n      swap1\n      pop\n        /* \"#utility.yul\":1025:1115   */\n      swap2\n      swap1\n      pop\n      jump\t// out\n        /* \"#utility.yul\":1121:1238   */\n    tag_21:\n        /* \"#utility.yul\":1210:1231   */\n      tag_39\n        /* \"#utility.yul\":1225:1230   */\n      dup2\n        /* \"#utility.yul\":1210:1231   */\n      tag_20\n      jump\t// in\n    tag_39:\n        /* \"#utility.yul\":1205:1208   */\n      dup3\n        /* \"#utility.yul\":1198:1232   */\n      mstore\n        /* \"#utility.yul\":1121:1238   */\n      pop\n      pop\n      jump\t// out\n        /* \"#utility.yul\":1244:1470   */\n    tag_8:\n        /* \"#utility.yul\":1339:1343   */\n      0x00\n        /* \"#utility.yul\":1377:1379   */\n      0x20\n        /* \"#utility.yul\":1366:1375   */\n      dup3\n        /* \"#utility.yul\":1362:1380   */\n      add\n        /* \"#utility.yul\":1354:1380   */\n      swap1\n      pop\n        /* \"#utility.yul\":1390:1463   */\n      tag_41\n        /* \"#utility.yul\":1460:1461   */\n      0x00\n        /* \"#utility.yul\":1449:1458   */\n      dup4\n        /* \"#utility.yul\":1445:1462   */\n      add\n        /* \"#utility.yul\":1436:1442   */\n      dup5\n        /* \"#utility.yul\":1390:1463   */\n      tag_21\n      jump\t// in\n    tag_41:\n        /* \"#utility.yul\":1244:1470   */\n      swap3\n      swap2\n      pop\n      pop\n      jump\t// out\n        /* \"#utility.yul\":1476:1656   */\n    tag_22:\n        /* \"#utility.yul\":1524:1601   */\n      0x4e487b7100000000000000000000000000000000000000000000000000000000\n        /* \"#utility.yul\":1521:1522   */\n      0x00\n        /* \"#utility.yul\":1514:1602   */\n      mstore\n        /* \"#utility.yul\":1621:1625   */\n      0x12\n        /* \"#utility.yul\":1618:1619   */\n      0x04\n        /* \"#utility.yul\":1611:1626   */\n      mstore\n        /* \"#utility.yul\":1645:1649   */\n      0x24\n        /* \"#utility.yul\":1642:1643   */\n      0x00\n        /* \"#utility.yul\":1635:1650   */\n      revert\n        /* \"#utility.yul\":1662:1838   */\n    tag_11:\n        /* \"#utility.yul\":1694:1695   */\n      0x00\n        /* \"#utility.yul\":1711:1731   */\n      tag_44\n        /* \"#utility.yul\":1729:1730   */\n      dup3\n        /* \"#utility.yul\":1711:1731   */\n      tag_17\n      jump\t// in\n    tag_44:\n        /* \"#utility.yul\":1706:1731   */\n      swap2\n      pop\n        /* \"#utility.yul\":1745:1765   */\n      tag_45\n        /* \"#utility.yul\":1763:1764   */\n      dup4\n        /* \"#utility.yul\":1745:1765   */\n      tag_17\n      jump\t// in\n    tag_45:\n        /* \"#utility.yul\":1740:1765   */\n      swap3\n      pop\n        /* \"#utility.yul\":1784:1785   */\n      dup3\n        /* \"#utility.yul\":1774:1809   */\n      tag_46\n      jumpi\n        /* \"#utility.yul\":1789:1807   */\n      tag_47\n      tag_22\n      jump\t// in\n    tag_47:\n        /* \"#utility.yul\":1774:1809   */\n    tag_46:\n        /* \"#utility.yul\":1830:1831   */\n      dup3\n        /* \"#utility.yul\":1827:1828   */\n      dup3\n        /* \"#utility.yul\":1823:1832   */\n      mod\n        /* \"#utility.yul\":1818:1832   */\n      swap1\n      pop\n        /* \"#utility.yul\":1662:1838   */\n      swap3\n      swap2\n      pop\n      pop\n      jump\t// out\n\n    auxdata: 0xa26469706673582212203d77c415c61af22dbd73d0401ca4d8079a690d4c99ba1a24b8a469b91cea743e64736f6c634300081a0033\n}\n",
				"bytecode": {
					"linkReferences": {},
					"object": "6101bc61004d600b8282823980515f1a6073146041577f4e487b71000000000000000000000000000000000000000000000000000000005f525f60045260245ffd5b305f52607381538281f3fe7300000000000000000000000000000000000000003014608060405260043610610034575f3560e01c806304844c5f14610038575b5f80fd5b610052600480360381019061004d91906100cb565b610068565b60405161005f9190610110565b60405180910390f35b5f806002836100779190610156565b90505f810361008a57600191505061008f565b5f9150505b919050565b5f80fd5b5f819050919050565b6100aa81610098565b81146100b4575f80fd5b50565b5f813590506100c5816100a1565b92915050565b5f602082840312156100e0576100df610094565b5b5f6100ed848285016100b7565b91505092915050565b5f8115159050919050565b61010a816100f6565b82525050565b5f6020820190506101235f830184610101565b92915050565b7f4e487b71000000000000000000000000000000000000000000000000000000005f52601260045260245ffd5b5f61016082610098565b915061016b83610098565b92508261017b5761017a610129565b5b82820690509291505056fea26469706673582212203d77c415c61af22dbd73d0401ca4d8079a690d4c99ba1a24b8a469b91cea743e64736f6c634300081a0033",
					"opcodes": "PUSH2 0x1BC PUSH2 0x4D PUSH1 0xB DUP3 DUP3 DUP3 CODECOPY DUP1 MLOAD PUSH0 BYTE PUSH1 0x73 EQ PUSH1 0x41 JUMPI PUSH32 0x4E487B7100000000000000000000000000000000000000000000000000000000 PUSH0 MSTORE PUSH0 PUSH1 0x4 MSTORE PUSH1 0x24 PUSH0 REVERT JUMPDEST ADDRESS PUSH0 MSTORE PUSH1 0x73 DUP2 MSTORE8 DUP3 DUP2 RETURN INVALID PUSH20 0x0 ADDRESS EQ PUSH1 0x80 PUSH1 0x40 MSTORE PUSH1 0x4 CALLDATASIZE LT PUSH2 0x34 JUMPI PUSH0 CALLDATALOAD PUSH1 0xE0 SHR DUP1 PUSH4 0x4844C5F EQ PUSH2 0x38 JUMPI JUMPDEST PUSH0 DUP1 REVERT JUMPDEST PUSH2 0x52 PUSH1 0x4 DUP1 CALLDATASIZE SUB DUP2 ADD SWAP1 PUSH2 0x4D SWAP2 SWAP1 PUSH2 0xCB JUMP JUMPDEST PUSH2 0x68 JUMP JUMPDEST PUSH1 0x40 MLOAD PUSH2 0x5F SWAP2 SWAP1 PUSH2 0x110 JUMP JUMPDEST PUSH1 0x40 MLOAD DUP1 SWAP2 SUB SWAP1 RETURN JUMPDEST PUSH0 DUP1 PUSH1 0x2 DUP4 PUSH2 0x77 SWAP2 SWAP1 PUSH2 0x156 JUMP JUMPDEST SWAP1 POP PUSH0 DUP2 SUB PUSH2 0x8A JUMPI PUSH1 0x1 SWAP2 POP POP PUSH2 0x8F JUMP JUMPDEST PUSH0 SWAP2 POP POP JUMPDEST SWAP2 SWAP1 POP JUMP JUMPDEST PUSH0 DUP1 REVERT JUMPDEST PUSH0 DUP2 SWAP1 POP SWAP2 SWAP1 POP JUMP JUMPDEST PUSH2 0xAA DUP2 PUSH2 0x98 JUMP JUMPDEST DUP2 EQ PUSH2 0xB4 JUMPI PUSH0 DUP1 REVERT JUMPDEST POP JUMP JUMPDEST PUSH0 DUP2 CALLDATALOAD SWAP1 POP PUSH2 0xC5 DUP2 PUSH2 0xA1 JUMP JUMPDEST SWAP3 SWAP2 POP POP JUMP JUMPDEST PUSH0 PUSH1 0x20 DUP3 DUP5 SUB SLT ISZERO PUSH2 0xE0 JUMPI PUSH2 0xDF PUSH2 0x94 JUMP JUMPDEST JUMPDEST PUSH0 PUSH2 0xED DUP5 DUP3 DUP6 ADD PUSH2 0xB7 JUMP JUMPDEST SWAP2 POP POP SWAP3 SWAP2 POP POP JUMP JUMPDEST PUSH0 DUP2 ISZERO ISZERO SWAP1 POP SWAP2 SWAP1 POP JUMP JUMPDEST PUSH2 0x10A DUP2 PUSH2 0xF6 JUMP JUMPDEST DUP3 MSTORE POP POP JUMP JUMPDEST PUSH0 PUSH1 0x20 DUP3 ADD SWAP1 POP PUSH2 0x123 PUSH0 DUP4 ADD DUP5 PUSH2 0x101 JUMP JUMPDEST SWAP3 SWAP2 POP POP JUMP JUMPDEST PUSH32 0x4E487B7100000000000000000000000000000000000000000000000000000000 PUSH0 MSTORE PUSH1 0x12 PUSH1 0x4 MSTORE PUSH1 0x24 PUSH0 REVERT JUMPDEST PUSH0 PUSH2 0x160 DUP3 PUSH2 0x98 JUMP JUMPDEST SWAP2 POP PUSH2 0x16B DUP4 PUSH2 0x98 JUMP JUMPDEST SWAP3 POP DUP3 PUSH2 0x17B JUMPI PUSH2 0x17A PUSH2 0x129 JUMP JUMPDEST JUMPDEST DUP3 DUP3 MOD SWAP1 POP SWAP3 SWAP2 POP POP JUMP INVALID LOG2 PUSH5 0x6970667358 0x22 SLT KECCAK256 RETURNDATASIZE PUSH24 0xC415C61AF22DBD73D0401CA4D8079A690D4C99BA1A24B8A4 PUSH10 0xB91CEA743E64736F6C63 NUMBER STOP ADDMOD BYTE STOP CALLER "
				},
				"gasEstimates": {
					"creation": {
						"codeDepositCost": "88800",
						"executionCost": "161",
						"totalCost": "88961"
					},
					"external": {
						"ver(uint256)": "infinite"
					}
				},
				"methodIdentifiers": {
					"ver(uint256)": "04844c5f"
				}
			},
			"storageLayout": {
				"storage": [],
				"types": null
			},
			"userdoc": {
				"kind": "user",
				"methods": {},
				"version": 1
			}
		}
	}
}