{
	"estructura.sol": {
		"EjemploEstructurasContract": {
			"abi": [
				{
					"inputs": [],
					"name": "functionQueRetornaTuplaDosValores",
					"outputs": [
						{
							"internalType": "string",
							"name": "",
							"type": "string"
						},
						{
							"internalType": "uint256",
							"name": "",
							"type": "uint256"
						}
					],
					"stateMutability": "pure",
					"type": "function"
				},
				{
					"inputs": [],
					"name": "functionQueRetornaTuplaDosstring",
					"outputs": [
						{
							"internalType": "string",
							"name": "",
							"type": "string"
						},
						{
							"internalType": "string",
							"name": "",
							"type": "string"
						}
					],
					"stateMutability": "pure",
					"type": "function"
				},
				{
					"inputs": [],
					"name": "miUsuario",
					"outputs": [
						{
							"internalType": "string",
							"name": "nombre",
							"type": "string"
						},
						{
							"internalType": "uint256",
							"name": "edad",
							"type": "uint256"
						},
						{
							"internalType": "address",
							"name": "wallet",
							"type": "address"
						}
					],
					"stateMutability": "view",
					"type": "function"
				},
				{
					"inputs": [],
					"name": "state",
					"outputs": [
						{
							"internalType": "enum EjemploEstructurasContract.Estados",
							"name": "",
							"type": "uint8"
						}
					],
					"stateMutability": "view",
					"type": "function"
				}
			],
			"devdoc": {
				"kind": "dev",
				"methods": {},
				"version": 1
			},
			"evm": {
				"assembly": "    /* \"estructura.sol\":96:604  contract EjemploEstructurasContract {\r... */\n  mstore(0x40, 0x80)\n    /* \"estructura.sol\":218:233  Estados.EstadoN */\n  0x03\n    /* \"estructura.sol\":195:233  Estados public state = Estados.EstadoN */\n  0x00\n  dup1\n  0x0100\n  exp\n  dup2\n  sload\n  dup2\n  0xff\n  mul\n  not\n  and\n  swap1\n  dup4\n  0x03\n  dup2\n  gt\n  iszero\n  tag_1\n  jumpi\n  tag_2\n  tag_3\n  jump\t// in\ntag_2:\ntag_1:\n  mul\n  or\n  swap1\n  sstore\n  pop\n    /* \"estructura.sol\":96:604  contract EjemploEstructurasContract {\r... */\n  callvalue\n  dup1\n  iszero\n  tag_4\n  jumpi\n  0x00\n  dup1\n  revert\ntag_4:\n  pop\n  jump(tag_5)\n    /* \"#utility.yul\":7:187   */\ntag_3:\n    /* \"#utility.yul\":55:132   */\n  0x4e487b7100000000000000000000000000000000000000000000000000000000\n    /* \"#utility.yul\":52:53   */\n  0x00\n    /* \"#utility.yul\":45:133   */\n  mstore\n    /* \"#utility.yul\":152:156   */\n  0x21\n    /* \"#utility.yul\":149:150   */\n  0x04\n    /* \"#utility.yul\":142:157   */\n  mstore\n    /* \"#utility.yul\":176:180   */\n  0x24\n    /* \"#utility.yul\":173:174   */\n  0x00\n    /* \"#utility.yul\":166:181   */\n  revert\n    /* \"estructura.sol\":96:604  contract EjemploEstructurasContract {\r... */\ntag_5:\n  dataSize(sub_0)\n  dup1\n  dataOffset(sub_0)\n  0x00\n  codecopy\n  0x00\n  return\nstop\n\nsub_0: assembly {\n        /* \"estructura.sol\":96:604  contract EjemploEstructurasContract {\r... */\n      mstore(0x40, 0x80)\n      callvalue\n      dup1\n      iszero\n      tag_1\n      jumpi\n      0x00\n      dup1\n      revert\n    tag_1:\n      pop\n      jumpi(tag_2, lt(calldatasize, 0x04))\n      shr(0xe0, calldataload(0x00))\n      dup1\n      0x08272586\n      eq\n      tag_3\n      jumpi\n      dup1\n      0x97866bad\n      eq\n      tag_4\n      jumpi\n      dup1\n      0xc19d93fb\n      eq\n      tag_5\n      jumpi\n      dup1\n      0xfc7333d6\n      eq\n      tag_6\n      jumpi\n    tag_2:\n      0x00\n      dup1\n      revert\n        /* \"estructura.sol\":459:601  function functionQueRetornaTuplaDosstring() public pure returns(string memory,string memory) {\r... */\n    tag_3:\n      tag_7\n      tag_8\n      jump\t// in\n    tag_7:\n      mload(0x40)\n      tag_9\n      swap3\n      swap2\n      swap1\n      tag_10\n      jump\t// in\n    tag_9:\n      mload(0x40)\n      dup1\n      swap2\n      sub\n      swap1\n      return\n        /* \"estructura.sol\":331:457  function functionQueRetornaTuplaDosValores() public pure returns(string memory,uint) {\r... */\n    tag_4:\n      tag_11\n      tag_12\n      jump\t// in\n    tag_11:\n      mload(0x40)\n      tag_13\n      swap3\n      swap2\n      swap1\n      tag_14\n      jump\t// in\n    tag_13:\n      mload(0x40)\n      dup1\n      swap2\n      sub\n      swap1\n      return\n        /* \"estructura.sol\":195:233  Estados public state = Estados.EstadoN */\n    tag_5:\n      tag_15\n      tag_16\n      jump\t// in\n    tag_15:\n      mload(0x40)\n      tag_17\n      swap2\n      swap1\n      tag_18\n      jump\t// in\n    tag_17:\n      mload(0x40)\n      dup1\n      swap2\n      sub\n      swap1\n      return\n        /* \"estructura.sol\":302:326  Usuario public miUsuario */\n    tag_6:\n      tag_19\n      tag_20\n      jump\t// in\n    tag_19:\n      mload(0x40)\n      tag_21\n      swap4\n      swap3\n      swap2\n      swap1\n      tag_22\n      jump\t// in\n    tag_21:\n      mload(0x40)\n      dup1\n      swap2\n      sub\n      swap1\n      return\n        /* \"estructura.sol\":459:601  function functionQueRetornaTuplaDosstring() public pure returns(string memory,string memory) {\r... */\n    tag_8:\n        /* \"estructura.sol\":523:536  string memory */\n      0x60\n        /* \"estructura.sol\":537:550  string memory */\n      dup1\n        /* \"estructura.sol\":555:597  return ('un valor de texto', 'otro valor') */\n      mload(0x40)\n      dup1\n      0x40\n      add\n      0x40\n      mstore\n      dup1\n      0x11\n      dup2\n      mstore\n      0x20\n      add\n      0x756e2076616c6f7220646520746578746f000000000000000000000000000000\n      dup2\n      mstore\n      pop\n      mload(0x40)\n      dup1\n      0x40\n      add\n      0x40\n      mstore\n      dup1\n      0x0a\n      dup2\n      mstore\n      0x20\n      add\n      0x6f74726f2076616c6f7200000000000000000000000000000000000000000000\n      dup2\n      mstore\n      pop\n      swap2\n      pop\n      swap2\n      pop\n        /* \"estructura.sol\":459:601  function functionQueRetornaTuplaDosstring() public pure returns(string memory,string memory) {\r... */\n      swap1\n      swap2\n      jump\t// out\n        /* \"estructura.sol\":331:457  function functionQueRetornaTuplaDosValores() public pure returns(string memory,uint) {\r... */\n    tag_12:\n        /* \"estructura.sol\":396:409  string memory */\n      0x60\n        /* \"estructura.sol\":410:414  uint */\n      0x00\n        /* \"estructura.sol\":448:452  1012 */\n      0x03f4\n        /* \"estructura.sol\":419:453  return ('un valor de texto', 1012) */\n      mload(0x40)\n      dup1\n      0x40\n      add\n      0x40\n      mstore\n      dup1\n      0x11\n      dup2\n      mstore\n      0x20\n      add\n      0x756e2076616c6f7220646520746578746f000000000000000000000000000000\n      dup2\n      mstore\n      pop\n      swap1\n      swap2\n      pop\n      swap2\n      pop\n        /* \"estructura.sol\":331:457  function functionQueRetornaTuplaDosValores() public pure returns(string memory,uint) {\r... */\n      swap1\n      swap2\n      jump\t// out\n        /* \"estructura.sol\":195:233  Estados public state = Estados.EstadoN */\n    tag_16:\n      0x00\n      dup1\n      sload\n      swap1\n      0x0100\n      exp\n      swap1\n      div\n      0xff\n      and\n      dup2\n      jump\t// out\n        /* \"estructura.sol\":302:326  Usuario public miUsuario */\n    tag_20:\n      0x01\n      dup1\n      0x00\n      add\n      dup1\n      sload\n      tag_25\n      swap1\n      tag_26\n      jump\t// in\n    tag_25:\n      dup1\n      0x1f\n      add\n      0x20\n      dup1\n      swap2\n      div\n      mul\n      0x20\n      add\n      mload(0x40)\n      swap1\n      dup2\n      add\n      0x40\n      mstore\n      dup1\n      swap3\n      swap2\n      swap1\n      dup2\n      dup2\n      mstore\n      0x20\n      add\n      dup3\n      dup1\n      sload\n      tag_27\n      swap1\n      tag_26\n      jump\t// in\n    tag_27:\n      dup1\n      iszero\n      tag_28\n      jumpi\n      dup1\n      0x1f\n      lt\n      tag_29\n      jumpi\n      0x0100\n      dup1\n      dup4\n      sload\n      div\n      mul\n      dup4\n      mstore\n      swap2\n      0x20\n      add\n      swap2\n      jump(tag_28)\n    tag_29:\n      dup3\n      add\n      swap2\n      swap1\n      0x00\n      mstore\n      keccak256(0x00, 0x20)\n      swap1\n    tag_30:\n      dup2\n      sload\n      dup2\n      mstore\n      swap1\n      0x01\n      add\n      swap1\n      0x20\n      add\n      dup1\n      dup4\n      gt\n      tag_30\n      jumpi\n      dup3\n      swap1\n      sub\n      0x1f\n      and\n      dup3\n      add\n      swap2\n    tag_28:\n      pop\n      pop\n      pop\n      pop\n      pop\n      swap1\n      dup1\n      0x01\n      add\n      sload\n      swap1\n      dup1\n      0x02\n      add\n      0x00\n      swap1\n      sload\n      swap1\n      0x0100\n      exp\n      swap1\n      div\n      0xffffffffffffffffffffffffffffffffffffffff\n      and\n      swap1\n      pop\n      dup4\n      jump\t// out\n        /* \"#utility.yul\":7:125   */\n    tag_32:\n        /* \"#utility.yul\":94:118   */\n      tag_34\n        /* \"#utility.yul\":112:117   */\n      dup2\n        /* \"#utility.yul\":94:118   */\n      tag_35\n      jump\t// in\n    tag_34:\n        /* \"#utility.yul\":89:92   */\n      dup3\n        /* \"#utility.yul\":82:119   */\n      mstore\n        /* \"#utility.yul\":7:125   */\n      pop\n      pop\n      jump\t// out\n        /* \"#utility.yul\":131:276   */\n    tag_36:\n        /* \"#utility.yul\":225:269   */\n      tag_38\n        /* \"#utility.yul\":263:268   */\n      dup2\n        /* \"#utility.yul\":225:269   */\n      tag_39\n      jump\t// in\n    tag_38:\n        /* \"#utility.yul\":220:223   */\n      dup3\n        /* \"#utility.yul\":213:270   */\n      mstore\n        /* \"#utility.yul\":131:276   */\n      pop\n      pop\n      jump\t// out\n        /* \"#utility.yul\":282:646   */\n    tag_40:\n        /* \"#utility.yul\":370:373   */\n      0x00\n        /* \"#utility.yul\":398:437   */\n      tag_42\n        /* \"#utility.yul\":431:436   */\n      dup3\n        /* \"#utility.yul\":398:437   */\n      tag_43\n      jump\t// in\n    tag_42:\n        /* \"#utility.yul\":453:524   */\n      tag_44\n        /* \"#utility.yul\":517:523   */\n      dup2\n        /* \"#utility.yul\":512:515   */\n      dup6\n        /* \"#utility.yul\":453:524   */\n      tag_45\n      jump\t// in\n    tag_44:\n        /* \"#utility.yul\":446:524   */\n      swap4\n      pop\n        /* \"#utility.yul\":533:585   */\n      tag_46\n        /* \"#utility.yul\":578:584   */\n      dup2\n        /* \"#utility.yul\":573:576   */\n      dup6\n        /* \"#utility.yul\":566:570   */\n      0x20\n        /* \"#utility.yul\":559:564   */\n      dup7\n        /* \"#utility.yul\":555:571   */\n      add\n        /* \"#utility.yul\":533:585   */\n      tag_47\n      jump\t// in\n    tag_46:\n        /* \"#utility.yul\":610:639   */\n      tag_48\n        /* \"#utility.yul\":632:638   */\n      dup2\n        /* \"#utility.yul\":610:639   */\n      tag_49\n      jump\t// in\n    tag_48:\n        /* \"#utility.yul\":605:608   */\n      dup5\n        /* \"#utility.yul\":601:640   */\n      add\n        /* \"#utility.yul\":594:640   */\n      swap2\n      pop\n        /* \"#utility.yul\":374:646   */\n      pop\n        /* \"#utility.yul\":282:646   */\n      swap3\n      swap2\n      pop\n      pop\n      jump\t// out\n        /* \"#utility.yul\":652:770   */\n    tag_50:\n        /* \"#utility.yul\":739:763   */\n      tag_52\n        /* \"#utility.yul\":757:762   */\n      dup2\n        /* \"#utility.yul\":739:763   */\n      tag_53\n      jump\t// in\n    tag_52:\n        /* \"#utility.yul\":734:737   */\n      dup3\n        /* \"#utility.yul\":727:764   */\n      mstore\n        /* \"#utility.yul\":652:770   */\n      pop\n      pop\n      jump\t// out\n        /* \"#utility.yul\":776:1012   */\n    tag_18:\n        /* \"#utility.yul\":876:880   */\n      0x00\n        /* \"#utility.yul\":914:916   */\n      0x20\n        /* \"#utility.yul\":903:912   */\n      dup3\n        /* \"#utility.yul\":899:917   */\n      add\n        /* \"#utility.yul\":891:917   */\n      swap1\n      pop\n        /* \"#utility.yul\":927:1005   */\n      tag_55\n        /* \"#utility.yul\":1002:1003   */\n      0x00\n        /* \"#utility.yul\":991:1000   */\n      dup4\n        /* \"#utility.yul\":987:1004   */\n      add\n        /* \"#utility.yul\":978:984   */\n      dup5\n        /* \"#utility.yul\":927:1005   */\n      tag_36\n      jump\t// in\n    tag_55:\n        /* \"#utility.yul\":776:1012   */\n      swap3\n      swap2\n      pop\n      pop\n      jump\t// out\n        /* \"#utility.yul\":1018:1532   */\n    tag_10:\n        /* \"#utility.yul\":1179:1183   */\n      0x00\n        /* \"#utility.yul\":1217:1219   */\n      0x40\n        /* \"#utility.yul\":1206:1215   */\n      dup3\n        /* \"#utility.yul\":1202:1220   */\n      add\n        /* \"#utility.yul\":1194:1220   */\n      swap1\n      pop\n        /* \"#utility.yul\":1266:1275   */\n      dup2\n        /* \"#utility.yul\":1260:1264   */\n      dup2\n        /* \"#utility.yul\":1256:1276   */\n      sub\n        /* \"#utility.yul\":1252:1253   */\n      0x00\n        /* \"#utility.yul\":1241:1250   */\n      dup4\n        /* \"#utility.yul\":1237:1254   */\n      add\n        /* \"#utility.yul\":1230:1277   */\n      mstore\n        /* \"#utility.yul\":1294:1372   */\n      tag_57\n        /* \"#utility.yul\":1367:1371   */\n      dup2\n        /* \"#utility.yul\":1358:1364   */\n      dup6\n        /* \"#utility.yul\":1294:1372   */\n      tag_40\n      jump\t// in\n    tag_57:\n        /* \"#utility.yul\":1286:1372   */\n      swap1\n      pop\n        /* \"#utility.yul\":1419:1428   */\n      dup2\n        /* \"#utility.yul\":1413:1417   */\n      dup2\n        /* \"#utility.yul\":1409:1429   */\n      sub\n        /* \"#utility.yul\":1404:1406   */\n      0x20\n        /* \"#utility.yul\":1393:1402   */\n      dup4\n        /* \"#utility.yul\":1389:1407   */\n      add\n        /* \"#utility.yul\":1382:1430   */\n      mstore\n        /* \"#utility.yul\":1447:1525   */\n      tag_58\n        /* \"#utility.yul\":1520:1524   */\n      dup2\n        /* \"#utility.yul\":1511:1517   */\n      dup5\n        /* \"#utility.yul\":1447:1525   */\n      tag_40\n      jump\t// in\n    tag_58:\n        /* \"#utility.yul\":1439:1525   */\n      swap1\n      pop\n        /* \"#utility.yul\":1018:1532   */\n      swap4\n      swap3\n      pop\n      pop\n      pop\n      jump\t// out\n        /* \"#utility.yul\":1538:1961   */\n    tag_14:\n        /* \"#utility.yul\":1679:1683   */\n      0x00\n        /* \"#utility.yul\":1717:1719   */\n      0x40\n        /* \"#utility.yul\":1706:1715   */\n      dup3\n        /* \"#utility.yul\":1702:1720   */\n      add\n        /* \"#utility.yul\":1694:1720   */\n      swap1\n      pop\n        /* \"#utility.yul\":1766:1775   */\n      dup2\n        /* \"#utility.yul\":1760:1764   */\n      dup2\n        /* \"#utility.yul\":1756:1776   */\n      sub\n        /* \"#utility.yul\":1752:1753   */\n      0x00\n        /* \"#utility.yul\":1741:1750   */\n      dup4\n        /* \"#utility.yul\":1737:1754   */\n      add\n        /* \"#utility.yul\":1730:1777   */\n      mstore\n        /* \"#utility.yul\":1794:1872   */\n      tag_60\n        /* \"#utility.yul\":1867:1871   */\n      dup2\n        /* \"#utility.yul\":1858:1864   */\n      dup6\n        /* \"#utility.yul\":1794:1872   */\n      tag_40\n      jump\t// in\n    tag_60:\n        /* \"#utility.yul\":1786:1872   */\n      swap1\n      pop\n        /* \"#utility.yul\":1882:1954   */\n      tag_61\n        /* \"#utility.yul\":1950:1952   */\n      0x20\n        /* \"#utility.yul\":1939:1948   */\n      dup4\n        /* \"#utility.yul\":1935:1953   */\n      add\n        /* \"#utility.yul\":1926:1932   */\n      dup5\n        /* \"#utility.yul\":1882:1954   */\n      tag_50\n      jump\t// in\n    tag_61:\n        /* \"#utility.yul\":1538:1961   */\n      swap4\n      swap3\n      pop\n      pop\n      pop\n      jump\t// out\n        /* \"#utility.yul\":1967:2500   */\n    tag_22:\n        /* \"#utility.yul\":2136:2140   */\n      0x00\n        /* \"#utility.yul\":2174:2176   */\n      0x60\n        /* \"#utility.yul\":2163:2172   */\n      dup3\n        /* \"#utility.yul\":2159:2177   */\n      add\n        /* \"#utility.yul\":2151:2177   */\n      swap1\n      pop\n        /* \"#utility.yul\":2223:2232   */\n      dup2\n        /* \"#utility.yul\":2217:2221   */\n      dup2\n        /* \"#utility.yul\":2213:2233   */\n      sub\n        /* \"#utility.yul\":2209:2210   */\n      0x00\n        /* \"#utility.yul\":2198:2207   */\n      dup4\n        /* \"#utility.yul\":2194:2211   */\n      add\n        /* \"#utility.yul\":2187:2234   */\n      mstore\n        /* \"#utility.yul\":2251:2329   */\n      tag_63\n        /* \"#utility.yul\":2324:2328   */\n      dup2\n        /* \"#utility.yul\":2315:2321   */\n      dup7\n        /* \"#utility.yul\":2251:2329   */\n      tag_40\n      jump\t// in\n    tag_63:\n        /* \"#utility.yul\":2243:2329   */\n      swap1\n      pop\n        /* \"#utility.yul\":2339:2411   */\n      tag_64\n        /* \"#utility.yul\":2407:2409   */\n      0x20\n        /* \"#utility.yul\":2396:2405   */\n      dup4\n        /* \"#utility.yul\":2392:2410   */\n      add\n        /* \"#utility.yul\":2383:2389   */\n      dup6\n        /* \"#utility.yul\":2339:2411   */\n      tag_50\n      jump\t// in\n    tag_64:\n        /* \"#utility.yul\":2421:2493   */\n      tag_65\n        /* \"#utility.yul\":2489:2491   */\n      0x40\n        /* \"#utility.yul\":2478:2487   */\n      dup4\n        /* \"#utility.yul\":2474:2492   */\n      add\n        /* \"#utility.yul\":2465:2471   */\n      dup5\n        /* \"#utility.yul\":2421:2493   */\n      tag_32\n      jump\t// in\n    tag_65:\n        /* \"#utility.yul\":1967:2500   */\n      swap5\n      swap4\n      pop\n      pop\n      pop\n      pop\n      jump\t// out\n        /* \"#utility.yul\":2506:2605   */\n    tag_43:\n        /* \"#utility.yul\":2558:2564   */\n      0x00\n        /* \"#utility.yul\":2592:2597   */\n      dup2\n        /* \"#utility.yul\":2586:2598   */\n      mload\n        /* \"#utility.yul\":2576:2598   */\n      swap1\n      pop\n        /* \"#utility.yul\":2506:2605   */\n      swap2\n      swap1\n      pop\n      jump\t// out\n        /* \"#utility.yul\":2611:2780   */\n    tag_45:\n        /* \"#utility.yul\":2695:2706   */\n      0x00\n        /* \"#utility.yul\":2729:2735   */\n      dup3\n        /* \"#utility.yul\":2724:2727   */\n      dup3\n        /* \"#utility.yul\":2717:2736   */\n      mstore\n        /* \"#utility.yul\":2769:2773   */\n      0x20\n        /* \"#utility.yul\":2764:2767   */\n      dup3\n        /* \"#utility.yul\":2760:2774   */\n      add\n        /* \"#utility.yul\":2745:2774   */\n      swap1\n      pop\n        /* \"#utility.yul\":2611:2780   */\n      swap3\n      swap2\n      pop\n      pop\n      jump\t// out\n        /* \"#utility.yul\":2786:2882   */\n    tag_35:\n        /* \"#utility.yul\":2823:2830   */\n      0x00\n        /* \"#utility.yul\":2852:2876   */\n      tag_69\n        /* \"#utility.yul\":2870:2875   */\n      dup3\n        /* \"#utility.yul\":2852:2876   */\n      tag_70\n      jump\t// in\n    tag_69:\n        /* \"#utility.yul\":2841:2876   */\n      swap1\n      pop\n        /* \"#utility.yul\":2786:2882   */\n      swap2\n      swap1\n      pop\n      jump\t// out\n        /* \"#utility.yul\":2888:3017   */\n    tag_71:\n        /* \"#utility.yul\":2934:2941   */\n      0x00\n        /* \"#utility.yul\":2963:2968   */\n      dup2\n        /* \"#utility.yul\":2952:2968   */\n      swap1\n      pop\n        /* \"#utility.yul\":2969:3011   */\n      tag_73\n        /* \"#utility.yul\":3005:3010   */\n      dup3\n        /* \"#utility.yul\":2969:3011   */\n      tag_74\n      jump\t// in\n    tag_73:\n        /* \"#utility.yul\":2888:3017   */\n      swap2\n      swap1\n      pop\n      jump\t// out\n        /* \"#utility.yul\":3023:3149   */\n    tag_70:\n        /* \"#utility.yul\":3060:3067   */\n      0x00\n        /* \"#utility.yul\":3100:3142   */\n      0xffffffffffffffffffffffffffffffffffffffff\n        /* \"#utility.yul\":3093:3098   */\n      dup3\n        /* \"#utility.yul\":3089:3143   */\n      and\n        /* \"#utility.yul\":3078:3143   */\n      swap1\n      pop\n        /* \"#utility.yul\":3023:3149   */\n      swap2\n      swap1\n      pop\n      jump\t// out\n        /* \"#utility.yul\":3155:3232   */\n    tag_53:\n        /* \"#utility.yul\":3192:3199   */\n      0x00\n        /* \"#utility.yul\":3221:3226   */\n      dup2\n        /* \"#utility.yul\":3210:3226   */\n      swap1\n      pop\n        /* \"#utility.yul\":3155:3232   */\n      swap2\n      swap1\n      pop\n      jump\t// out\n        /* \"#utility.yul\":3238:3367   */\n    tag_39:\n        /* \"#utility.yul\":3295:3304   */\n      0x00\n        /* \"#utility.yul\":3328:3361   */\n      tag_78\n        /* \"#utility.yul\":3355:3360   */\n      dup3\n        /* \"#utility.yul\":3328:3361   */\n      tag_71\n      jump\t// in\n    tag_78:\n        /* \"#utility.yul\":3315:3361   */\n      swap1\n      pop\n        /* \"#utility.yul\":3238:3367   */\n      swap2\n      swap1\n      pop\n      jump\t// out\n        /* \"#utility.yul\":3373:3680   */\n    tag_47:\n        /* \"#utility.yul\":3441:3442   */\n      0x00\n        /* \"#utility.yul\":3451:3564   */\n    tag_80:\n        /* \"#utility.yul\":3465:3471   */\n      dup4\n        /* \"#utility.yul\":3462:3463   */\n      dup2\n        /* \"#utility.yul\":3459:3472   */\n      lt\n        /* \"#utility.yul\":3451:3564   */\n      iszero\n      tag_82\n      jumpi\n        /* \"#utility.yul\":3550:3551   */\n      dup1\n        /* \"#utility.yul\":3545:3548   */\n      dup3\n        /* \"#utility.yul\":3541:3552   */\n      add\n        /* \"#utility.yul\":3535:3553   */\n      mload\n        /* \"#utility.yul\":3531:3532   */\n      dup2\n        /* \"#utility.yul\":3526:3529   */\n      dup5\n        /* \"#utility.yul\":3522:3533   */\n      add\n        /* \"#utility.yul\":3515:3554   */\n      mstore\n        /* \"#utility.yul\":3487:3489   */\n      0x20\n        /* \"#utility.yul\":3484:3485   */\n      dup2\n        /* \"#utility.yul\":3480:3490   */\n      add\n        /* \"#utility.yul\":3475:3490   */\n      swap1\n      pop\n        /* \"#utility.yul\":3451:3564   */\n      jump(tag_80)\n    tag_82:\n        /* \"#utility.yul\":3582:3588   */\n      dup4\n        /* \"#utility.yul\":3579:3580   */\n      dup2\n        /* \"#utility.yul\":3576:3589   */\n      gt\n        /* \"#utility.yul\":3573:3674   */\n      iszero\n      tag_83\n      jumpi\n        /* \"#utility.yul\":3662:3663   */\n      0x00\n        /* \"#utility.yul\":3653:3659   */\n      dup5\n        /* \"#utility.yul\":3648:3651   */\n      dup5\n        /* \"#utility.yul\":3644:3660   */\n      add\n        /* \"#utility.yul\":3637:3664   */\n      mstore\n        /* \"#utility.yul\":3573:3674   */\n    tag_83:\n        /* \"#utility.yul\":3422:3680   */\n      pop\n        /* \"#utility.yul\":3373:3680   */\n      pop\n      pop\n      pop\n      jump\t// out\n        /* \"#utility.yul\":3686:4006   */\n    tag_26:\n        /* \"#utility.yul\":3730:3736   */\n      0x00\n        /* \"#utility.yul\":3767:3768   */\n      0x02\n        /* \"#utility.yul\":3761:3765   */\n      dup3\n        /* \"#utility.yul\":3757:3769   */\n      div\n        /* \"#utility.yul\":3747:3769   */\n      swap1\n      pop\n        /* \"#utility.yul\":3814:3815   */\n      0x01\n        /* \"#utility.yul\":3808:3812   */\n      dup3\n        /* \"#utility.yul\":3804:3816   */\n      and\n        /* \"#utility.yul\":3835:3853   */\n      dup1\n        /* \"#utility.yul\":3825:3906   */\n      tag_85\n      jumpi\n        /* \"#utility.yul\":3891:3895   */\n      0x7f\n        /* \"#utility.yul\":3883:3889   */\n      dup3\n        /* \"#utility.yul\":3879:3896   */\n      and\n        /* \"#utility.yul\":3869:3896   */\n      swap2\n      pop\n        /* \"#utility.yul\":3825:3906   */\n    tag_85:\n        /* \"#utility.yul\":3953:3955   */\n      0x20\n        /* \"#utility.yul\":3945:3951   */\n      dup3\n        /* \"#utility.yul\":3942:3956   */\n      lt\n        /* \"#utility.yul\":3922:3940   */\n      dup2\n        /* \"#utility.yul\":3919:3957   */\n      eq\n        /* \"#utility.yul\":3916:4000   */\n      iszero\n      tag_86\n      jumpi\n        /* \"#utility.yul\":3972:3990   */\n      tag_87\n      tag_88\n      jump\t// in\n    tag_87:\n        /* \"#utility.yul\":3916:4000   */\n    tag_86:\n        /* \"#utility.yul\":3737:4006   */\n      pop\n        /* \"#utility.yul\":3686:4006   */\n      swap2\n      swap1\n      pop\n      jump\t// out\n        /* \"#utility.yul\":4012:4192   */\n    tag_89:\n        /* \"#utility.yul\":4060:4137   */\n      0x4e487b7100000000000000000000000000000000000000000000000000000000\n        /* \"#utility.yul\":4057:4058   */\n      0x00\n        /* \"#utility.yul\":4050:4138   */\n      mstore\n        /* \"#utility.yul\":4157:4161   */\n      0x21\n        /* \"#utility.yul\":4154:4155   */\n      0x04\n        /* \"#utility.yul\":4147:4162   */\n      mstore\n        /* \"#utility.yul\":4181:4185   */\n      0x24\n        /* \"#utility.yul\":4178:4179   */\n      0x00\n        /* \"#utility.yul\":4171:4186   */\n      revert\n        /* \"#utility.yul\":4198:4378   */\n    tag_88:\n        /* \"#utility.yul\":4246:4323   */\n      0x4e487b7100000000000000000000000000000000000000000000000000000000\n        /* \"#utility.yul\":4243:4244   */\n      0x00\n        /* \"#utility.yul\":4236:4324   */\n      mstore\n        /* \"#utility.yul\":4343:4347   */\n      0x22\n        /* \"#utility.yul\":4340:4341   */\n      0x04\n        /* \"#utility.yul\":4333:4348   */\n      mstore\n        /* \"#utility.yul\":4367:4371   */\n      0x24\n        /* \"#utility.yul\":4364:4365   */\n      0x00\n        /* \"#utility.yul\":4357:4372   */\n      revert\n        /* \"#utility.yul\":4384:4486   */\n    tag_49:\n        /* \"#utility.yul\":4425:4431   */\n      0x00\n        /* \"#utility.yul\":4476:4478   */\n      0x1f\n        /* \"#utility.yul\":4472:4479   */\n      not\n        /* \"#utility.yul\":4467:4469   */\n      0x1f\n        /* \"#utility.yul\":4460:4465   */\n      dup4\n        /* \"#utility.yul\":4456:4470   */\n      add\n        /* \"#utility.yul\":4452:4480   */\n      and\n        /* \"#utility.yul\":4442:4480   */\n      swap1\n      pop\n        /* \"#utility.yul\":4384:4486   */\n      swap2\n      swap1\n      pop\n      jump\t// out\n        /* \"#utility.yul\":4492:4606   */\n    tag_74:\n        /* \"#utility.yul\":4574:4575   */\n      0x04\n        /* \"#utility.yul\":4567:4572   */\n      dup2\n        /* \"#utility.yul\":4564:4576   */\n      lt\n        /* \"#utility.yul\":4554:4600   */\n      tag_94\n      jumpi\n        /* \"#utility.yul\":4580:4598   */\n      tag_95\n      tag_89\n      jump\t// in\n    tag_95:\n        /* \"#utility.yul\":4554:4600   */\n    tag_94:\n        /* \"#utility.yul\":4492:4606   */\n      pop\n      jump\t// out\n\n    auxdata: 0xa2646970667358221220bc68ce4b4619473f7a07ff991447a278624e727795397407be9fb3999dfe823464736f6c63430008070033\n}\n",
				"bytecode": {
					"linkReferences": {},
					"object": "608060405260036000806101000a81548160ff0219169083600381111561002957610028610040565b5b021790555034801561003a57600080fd5b5061006f565b7f4e487b7100000000000000000000000000000000000000000000000000000000600052602160045260246000fd5b61051c8061007e6000396000f3fe608060405234801561001057600080fd5b506004361061004c5760003560e01c8063082725861461005157806397866bad14610070578063c19d93fb1461008f578063fc7333d6146100ad575b600080fd5b6100596100cd565b6040516100679291906102dc565b60405180910390f35b610078610144565b604051610086929190610313565b60405180910390f35b61009761018a565b6040516100a491906102c1565b60405180910390f35b6100b561019b565b6040516100c493929190610343565b60405180910390f35b6060806040518060400160405280601181526020017f756e2076616c6f7220646520746578746f0000000000000000000000000000008152506040518060400160405280600a81526020017f6f74726f2076616c6f7200000000000000000000000000000000000000000000815250915091509091565b606060006103f46040518060400160405280601181526020017f756e2076616c6f7220646520746578746f00000000000000000000000000000081525090915091509091565b60008054906101000a900460ff1681565b60018060000180546101ac90610431565b80601f01602080910402602001604051908101604052809291908181526020018280546101d890610431565b80156102255780601f106101fa57610100808354040283529160200191610225565b820191906000526020600020905b81548152906001019060200180831161020857829003601f168201915b5050505050908060010154908060020160009054906101000a900473ffffffffffffffffffffffffffffffffffffffff16905083565b6102648161039d565b82525050565b610273816103ec565b82525050565b600061028482610381565b61028e818561038c565b935061029e8185602086016103fe565b6102a7816104c1565b840191505092915050565b6102bb816103e2565b82525050565b60006020820190506102d6600083018461026a565b92915050565b600060408201905081810360008301526102f68185610279565b9050818103602083015261030a8184610279565b90509392505050565b6000604082019050818103600083015261032d8185610279565b905061033c60208301846102b2565b9392505050565b6000606082019050818103600083015261035d8186610279565b905061036c60208301856102b2565b610379604083018461025b565b949350505050565b600081519050919050565b600082825260208201905092915050565b60006103a8826103c2565b9050919050565b60008190506103bd826104d2565b919050565b600073ffffffffffffffffffffffffffffffffffffffff82169050919050565b6000819050919050565b60006103f7826103af565b9050919050565b60005b8381101561041c578082015181840152602081019050610401565b8381111561042b576000848401525b50505050565b6000600282049050600182168061044957607f821691505b6020821081141561045d5761045c610492565b5b50919050565b7f4e487b7100000000000000000000000000000000000000000000000000000000600052602160045260246000fd5b7f4e487b7100000000000000000000000000000000000000000000000000000000600052602260045260246000fd5b6000601f19601f8301169050919050565b600481106104e3576104e2610463565b5b5056fea2646970667358221220bc68ce4b4619473f7a07ff991447a278624e727795397407be9fb3999dfe823464736f6c63430008070033",
					"opcodes": "PUSH1 0x80 PUSH1 0x40 MSTORE PUSH1 0x3 PUSH1 0x0 DUP1 PUSH2 0x100 EXP DUP2 SLOAD DUP2 PUSH1 0xFF MUL NOT AND SWAP1 DUP4 PUSH1 0x3 DUP2 GT ISZERO PUSH2 0x29 JUMPI PUSH2 0x28 PUSH2 0x40 JUMP JUMPDEST JUMPDEST MUL OR SWAP1 SSTORE POP CALLVALUE DUP1 ISZERO PUSH2 0x3A JUMPI PUSH1 0x0 DUP1 REVERT JUMPDEST POP PUSH2 0x6F JUMP JUMPDEST PUSH32 0x4E487B7100000000000000000000000000000000000000000000000000000000 PUSH1 0x0 MSTORE PUSH1 0x21 PUSH1 0x4 MSTORE PUSH1 0x24 PUSH1 0x0 REVERT JUMPDEST PUSH2 0x51C DUP1 PUSH2 0x7E PUSH1 0x0 CODECOPY PUSH1 0x0 RETURN INVALID PUSH1 0x80 PUSH1 0x40 MSTORE CALLVALUE DUP1 ISZERO PUSH2 0x10 JUMPI PUSH1 0x0 DUP1 REVERT JUMPDEST POP PUSH1 0x4 CALLDATASIZE LT PUSH2 0x4C JUMPI PUSH1 0x0 CALLDATALOAD PUSH1 0xE0 SHR DUP1 PUSH4 0x8272586 EQ PUSH2 0x51 JUMPI DUP1 PUSH4 0x97866BAD EQ PUSH2 0x70 JUMPI DUP1 PUSH4 0xC19D93FB EQ PUSH2 0x8F JUMPI DUP1 PUSH4 0xFC7333D6 EQ PUSH2 0xAD JUMPI JUMPDEST PUSH1 0x0 DUP1 REVERT JUMPDEST PUSH2 0x59 PUSH2 0xCD JUMP JUMPDEST PUSH1 0x40 MLOAD PUSH2 0x67 SWAP3 SWAP2 SWAP1 PUSH2 0x2DC JUMP JUMPDEST PUSH1 0x40 MLOAD DUP1 SWAP2 SUB SWAP1 RETURN JUMPDEST PUSH2 0x78 PUSH2 0x144 JUMP JUMPDEST PUSH1 0x40 MLOAD PUSH2 0x86 SWAP3 SWAP2 SWAP1 PUSH2 0x313 JUMP JUMPDEST PUSH1 0x40 MLOAD DUP1 SWAP2 SUB SWAP1 RETURN JUMPDEST PUSH2 0x97 PUSH2 0x18A JUMP JUMPDEST PUSH1 0x40 MLOAD PUSH2 0xA4 SWAP2 SWAP1 PUSH2 0x2C1 JUMP JUMPDEST PUSH1 0x40 MLOAD DUP1 SWAP2 SUB SWAP1 RETURN JUMPDEST PUSH2 0xB5 PUSH2 0x19B JUMP JUMPDEST PUSH1 0x40 MLOAD PUSH2 0xC4 SWAP4 SWAP3 SWAP2 SWAP1 PUSH2 0x343 JUMP JUMPDEST PUSH1 0x40 MLOAD DUP1 SWAP2 SUB SWAP1 RETURN JUMPDEST PUSH1 0x60 DUP1 PUSH1 0x40 MLOAD DUP1 PUSH1 0x40 ADD PUSH1 0x40 MSTORE DUP1 PUSH1 0x11 DUP2 MSTORE PUSH1 0x20 ADD PUSH32 0x756E2076616C6F7220646520746578746F000000000000000000000000000000 DUP2 MSTORE POP PUSH1 0x40 MLOAD DUP1 PUSH1 0x40 ADD PUSH1 0x40 MSTORE DUP1 PUSH1 0xA DUP2 MSTORE PUSH1 0x20 ADD PUSH32 0x6F74726F2076616C6F7200000000000000000000000000000000000000000000 DUP2 MSTORE POP SWAP2 POP SWAP2 POP SWAP1 SWAP2 JUMP JUMPDEST PUSH1 0x60 PUSH1 0x0 PUSH2 0x3F4 PUSH1 0x40 MLOAD DUP1 PUSH1 0x40 ADD PUSH1 0x40 MSTORE DUP1 PUSH1 0x11 DUP2 MSTORE PUSH1 0x20 ADD PUSH32 0x756E2076616C6F7220646520746578746F000000000000000000000000000000 DUP2 MSTORE POP SWAP1 SWAP2 POP SWAP2 POP SWAP1 SWAP2 JUMP JUMPDEST PUSH1 0x0 DUP1 SLOAD SWAP1 PUSH2 0x100 EXP SWAP1 DIV PUSH1 0xFF AND DUP2 JUMP JUMPDEST PUSH1 0x1 DUP1 PUSH1 0x0 ADD DUP1 SLOAD PUSH2 0x1AC SWAP1 PUSH2 0x431 JUMP JUMPDEST DUP1 PUSH1 0x1F ADD PUSH1 0x20 DUP1 SWAP2 DIV MUL PUSH1 0x20 ADD PUSH1 0x40 MLOAD SWAP1 DUP2 ADD PUSH1 0x40 MSTORE DUP1 SWAP3 SWAP2 SWAP1 DUP2 DUP2 MSTORE PUSH1 0x20 ADD DUP3 DUP1 SLOAD PUSH2 0x1D8 SWAP1 PUSH2 0x431 JUMP JUMPDEST DUP1 ISZERO PUSH2 0x225 JUMPI DUP1 PUSH1 0x1F LT PUSH2 0x1FA JUMPI PUSH2 0x100 DUP1 DUP4 SLOAD DIV MUL DUP4 MSTORE SWAP2 PUSH1 0x20 ADD SWAP2 PUSH2 0x225 JUMP JUMPDEST DUP3 ADD SWAP2 SWAP1 PUSH1 0x0 MSTORE PUSH1 0x20 PUSH1 0x0 KECCAK256 SWAP1 JUMPDEST DUP2 SLOAD DUP2 MSTORE SWAP1 PUSH1 0x1 ADD SWAP1 PUSH1 0x20 ADD DUP1 DUP4 GT PUSH2 0x208 JUMPI DUP3 SWAP1 SUB PUSH1 0x1F AND DUP3 ADD SWAP2 JUMPDEST POP POP POP POP POP SWAP1 DUP1 PUSH1 0x1 ADD SLOAD SWAP1 DUP1 PUSH1 0x2 ADD PUSH1 0x0 SWAP1 SLOAD SWAP1 PUSH2 0x100 EXP SWAP1 DIV PUSH20 0xFFFFFFFFFFFFFFFFFFFFFFFFFFFFFFFFFFFFFFFF AND SWAP1 POP DUP4 JUMP JUMPDEST PUSH2 0x264 DUP2 PUSH2 0x39D JUMP JUMPDEST DUP3 MSTORE POP POP JUMP JUMPDEST PUSH2 0x273 DUP2 PUSH2 0x3EC JUMP JUMPDEST DUP3 MSTORE POP POP JUMP JUMPDEST PUSH1 0x0 PUSH2 0x284 DUP3 PUSH2 0x381 JUMP JUMPDEST PUSH2 0x28E DUP2 DUP6 PUSH2 0x38C JUMP JUMPDEST SWAP4 POP PUSH2 0x29E DUP2 DUP6 PUSH1 0x20 DUP7 ADD PUSH2 0x3FE JUMP JUMPDEST PUSH2 0x2A7 DUP2 PUSH2 0x4C1 JUMP JUMPDEST DUP5 ADD SWAP2 POP POP SWAP3 SWAP2 POP POP JUMP JUMPDEST PUSH2 0x2BB DUP2 PUSH2 0x3E2 JUMP JUMPDEST DUP3 MSTORE POP POP JUMP JUMPDEST PUSH1 0x0 PUSH1 0x20 DUP3 ADD SWAP1 POP PUSH2 0x2D6 PUSH1 0x0 DUP4 ADD DUP5 PUSH2 0x26A JUMP JUMPDEST SWAP3 SWAP2 POP POP JUMP JUMPDEST PUSH1 0x0 PUSH1 0x40 DUP3 ADD SWAP1 POP DUP2 DUP2 SUB PUSH1 0x0 DUP4 ADD MSTORE PUSH2 0x2F6 DUP2 DUP6 PUSH2 0x279 JUMP JUMPDEST SWAP1 POP DUP2 DUP2 SUB PUSH1 0x20 DUP4 ADD MSTORE PUSH2 0x30A DUP2 DUP5 PUSH2 0x279 JUMP JUMPDEST SWAP1 POP SWAP4 SWAP3 POP POP POP JUMP JUMPDEST PUSH1 0x0 PUSH1 0x40 DUP3 ADD SWAP1 POP DUP2 DUP2 SUB PUSH1 0x0 DUP4 ADD MSTORE PUSH2 0x32D DUP2 DUP6 PUSH2 0x279 JUMP JUMPDEST SWAP1 POP PUSH2 0x33C PUSH1 0x20 DUP4 ADD DUP5 PUSH2 0x2B2 JUMP JUMPDEST SWAP4 SWAP3 POP POP POP JUMP JUMPDEST PUSH1 0x0 PUSH1 0x60 DUP3 ADD SWAP1 POP DUP2 DUP2 SUB PUSH1 0x0 DUP4 ADD MSTORE PUSH2 0x35D DUP2 DUP7 PUSH2 0x279 JUMP JUMPDEST SWAP1 POP PUSH2 0x36C PUSH1 0x20 DUP4 ADD DUP6 PUSH2 0x2B2 JUMP JUMPDEST PUSH2 0x379 PUSH1 0x40 DUP4 ADD DUP5 PUSH2 0x25B JUMP JUMPDEST SWAP5 SWAP4 POP POP POP POP JUMP JUMPDEST PUSH1 0x0 DUP2 MLOAD SWAP1 POP SWAP2 SWAP1 POP JUMP JUMPDEST PUSH1 0x0 DUP3 DUP3 MSTORE PUSH1 0x20 DUP3 ADD SWAP1 POP SWAP3 SWAP2 POP POP JUMP JUMPDEST PUSH1 0x0 PUSH2 0x3A8 DUP3 PUSH2 0x3C2 JUMP JUMPDEST SWAP1 POP SWAP2 SWAP1 POP JUMP JUMPDEST PUSH1 0x0 DUP2 SWAP1 POP PUSH2 0x3BD DUP3 PUSH2 0x4D2 JUMP JUMPDEST SWAP2 SWAP1 POP JUMP JUMPDEST PUSH1 0x0 PUSH20 0xFFFFFFFFFFFFFFFFFFFFFFFFFFFFFFFFFFFFFFFF DUP3 AND SWAP1 POP SWAP2 SWAP1 POP JUMP JUMPDEST PUSH1 0x0 DUP2 SWAP1 POP SWAP2 SWAP1 POP JUMP JUMPDEST PUSH1 0x0 PUSH2 0x3F7 DUP3 PUSH2 0x3AF JUMP JUMPDEST SWAP1 POP SWAP2 SWAP1 POP JUMP JUMPDEST PUSH1 0x0 JUMPDEST DUP4 DUP2 LT ISZERO PUSH2 0x41C JUMPI DUP1 DUP3 ADD MLOAD DUP2 DUP5 ADD MSTORE PUSH1 0x20 DUP2 ADD SWAP1 POP PUSH2 0x401 JUMP JUMPDEST DUP4 DUP2 GT ISZERO PUSH2 0x42B JUMPI PUSH1 0x0 DUP5 DUP5 ADD MSTORE JUMPDEST POP POP POP POP JUMP JUMPDEST PUSH1 0x0 PUSH1 0x2 DUP3 DIV SWAP1 POP PUSH1 0x1 DUP3 AND DUP1 PUSH2 0x449 JUMPI PUSH1 0x7F DUP3 AND SWAP2 POP JUMPDEST PUSH1 0x20 DUP3 LT DUP2 EQ ISZERO PUSH2 0x45D JUMPI PUSH2 0x45C PUSH2 0x492 JUMP JUMPDEST JUMPDEST POP SWAP2 SWAP1 POP JUMP JUMPDEST PUSH32 0x4E487B7100000000000000000000000000000000000000000000000000000000 PUSH1 0x0 MSTORE PUSH1 0x21 PUSH1 0x4 MSTORE PUSH1 0x24 PUSH1 0x0 REVERT JUMPDEST PUSH32 0x4E487B7100000000000000000000000000000000000000000000000000000000 PUSH1 0x0 MSTORE PUSH1 0x22 PUSH1 0x4 MSTORE PUSH1 0x24 PUSH1 0x0 REVERT JUMPDEST PUSH1 0x0 PUSH1 0x1F NOT PUSH1 0x1F DUP4 ADD AND SWAP1 POP SWAP2 SWAP1 POP JUMP JUMPDEST PUSH1 0x4 DUP2 LT PUSH2 0x4E3 JUMPI PUSH2 0x4E2 PUSH2 0x463 JUMP JUMPDEST JUMPDEST POP JUMP INVALID LOG2 PUSH5 0x6970667358 0x22 SLT KECCAK256 0xBC PUSH9 0xCE4B4619473F7A07FF SWAP10 EQ SELFBALANCE LOG2 PUSH25 0x624E727795397407BE9FB3999DFE823464736F6C6343000807 STOP CALLER "
				},
				"gasEstimates": {
					"creation": {
						"codeDepositCost": "261600",
						"executionCost": "24599",
						"totalCost": "286199"
					},
					"external": {
						"functionQueRetornaTuplaDosValores()": "infinite",
						"functionQueRetornaTuplaDosstring()": "infinite",
						"miUsuario()": "infinite",
						"state()": "2579"
					}
				},
				"methodIdentifiers": {
					"functionQueRetornaTuplaDosValores()": "97866bad",
					"functionQueRetornaTuplaDosstring()": "08272586",
					"miUsuario()": "fc7333d6",
					"state()": "c19d93fb"
				}
			},
			"storageLayout": {
				"storage": [
					{
						"astId": 11,
						"contract": "estructura.sol:EjemploEstructurasContract",
						"label": "state",
						"offset": 0,
						"slot": "0",
						"type": "t_enum(Estados)6"
					},
					{
						"astId": 21,
						"contract": "estructura.sol:EjemploEstructurasContract",
						"label": "miUsuario",
						"offset": 0,
						"slot": "1",
						"type": "t_struct(Usuario)18_storage"
					}
				],
				"types": {
					"t_address": {
						"encoding": "inplace",
						"label": "address",
						"numberOfBytes": "20"
					},
					"t_enum(Estados)6": {
						"encoding": "inplace",
						"label": "enum EjemploEstructurasContract.Estados",
						"numberOfBytes": "1"
					},
					"t_string_storage": {
						"encoding": "bytes",
						"label": "string",
						"numberOfBytes": "32"
					},
					"t_struct(Usuario)18_storage": {
						"encoding": "inplace",
						"label": "struct EjemploEstructurasContract.Usuario",
						"members": [
							{
								"astId": 13,
								"contract": "estructura.sol:EjemploEstructurasContract",
								"label": "nombre",
								"offset": 0,
								"slot": "0",
								"type": "t_string_storage"
							},
							{
								"astId": 15,
								"contract": "estructura.sol:EjemploEstructurasContract",
								"label": "edad",
								"offset": 0,
								"slot": "1",
								"type": "t_uint256"
							},
							{
								"astId": 17,
								"contract": "estructura.sol:EjemploEstructurasContract",
								"label": "wallet",
								"offset": 0,
								"slot": "2",
								"type": "t_address"
							}
						],
						"numberOfBytes": "96"
					},
					"t_uint256": {
						"encoding": "inplace",
						"label": "uint256",
						"numberOfBytes": "32"
					}
				}
			},
			"userdoc": {
				"kind": "user",
				"methods": {},
				"version": 1
			}
		}
	}
}